:100000000C9454010C9485020C9471010C947101B0
:100010000C9471010C9437030C9471010C947101D0
:100020000C9471010C9471010C94C3010C94710136
:100030000C9471010C9471010C943B020C947101AD
:100040000C9471010C9471010C947A010C9471015F
:100050000C9471010C9495030C9471010C94710132
:100060000C9471010C947101050000000000050062
:10007000005F000005000700070005147F147F14CF
:1000800005242A7F2A12052313086462053649567F
:10009000205005080703000005001C224100050050
:1000A00041221C000514083E08140508083E0808F3
:1000B0000500B07000000508080808080500606029
:1000C0000000052010080402053E5149453E050088
:1000D000427F4000057249494946052141494D3357
:1000E000051814127F10052745454539053C4A4936
:1000F0004931054121110907053649494936054667
:100100004949291E05000014000005004034000084
:100110000508142241000514141414140541221476
:100120000800050201590906053E415D594E057C4E
:100130001211127C057F49494936053E4141412251
:10014000057F4141413E057F49494949057F0909EC
:100150000909053E41415173057F0808087F0500E4
:10016000417F4100052040413F01057F08142241A5
:10017000057F40404040057F020C027F057F040858
:10018000107F053E4141413E057F09090906053EB4
:100190004151215E057F0919294605264949493201
:1001A0000501017F0101053F4040403F051F204000
:1001B000201F053F4038403F0563140814630503C2
:1001C0000478040305615149454305007F4141001E
:1001D000050204081020050041417F0005040201CA
:1001E000020405404040404005070B000000052088
:1001F00054547840057F2844443805384444442802
:1002000005384444287F0538545454180500087EA6
:1002100009020518A4A49C78057F08040478050049
:10022000447D4000052040403D00057F10284400EB
:100230000500417F4000057C04780478057C0804B3
:10024000047805384444443805FC1824241805185B
:10025000242418FC057C080404080548545454243C
:100260000504043F4424053C4040207C051C2040FC
:10027000201C053C4030403C054428102844054CD7
:100280009090907C054464544C440500083641002D
:10029000050000770000050041360800050402044F
:1002A000080405007F417F0011241FBECFEFD8E076
:1002B000DEBFCDBF11E0A0E0B1E0EAEBFCE102C09F
:1002C00005900D92A633B107D9F725E0A6E3B1E07A
:1002D00001C01D92AC35B207E1F70E94AE050C9447
:1002E0005B0E0C9400009091C00095FFFCCF8093B2
:1002F000C60008951F920F920FB60F9211242F93EC
:100300003F934F935F936F937F938F939F93AF939D
:10031000BF93CF93EF93FF93C091C600CC36D9F42F
:10032000109249011092480160E080E090E00E9444
:10033000160E6091480170914901072E000C880B40
:10034000990B0E94E90960934401709345018093E1
:10035000460190934701C43621F4809148010E94E0
:100360007301FF91EF91CF91BF91AF919F918F91C9
:100370007F916F915F914F913F912F910F900FBEA1
:100380000F901F9018951F920F920FB60F92112485
:100390000F931F932F933F934F935F936F937F938D
:1003A0008F939F93AF93BF93EF93FF9380918100BF
:1003B00086FF0FC08091860090918700A0E0B0E09A
:1003C0008093400190934101A0934201B093430177
:1003D00027C06091860070918700CB01A0E0B0E05B
:1003E000009140011091410120914201309143015F
:1003F000BC01CD01601B710B820B930B0E94E709BE
:100400002DEC3CEC4CE451E40E949E0A0E94B80999
:1004100060933C0170933D0180933E0190933F01B6
:10042000E1E8F0E0908180E48927808360913C01DD
:1004300070913D0180913E0190913F012AE330E0AF
:1004400040E050E00E940B0B30930B0120930A0117
:10045000FF91EF91BF91AF919F918F917F916F919C
:100460005F914F913F912F911F910F910F900FBE70
:100470000F901F9018951F920F920FB60F92112494
:100480002F933F934F935F936F937F938F939F939C
:10049000AF93BF93EF93FF9380914C0190914D01E7
:1004A000A0914E01B0914F01BC01CD016F5F7F4F14
:1004B0008F4F9F4F60934C0170934D0180934E017D
:1004C00090934F0121E0209352012093500122E3A9
:1004D00030E040E050E00E940B0B672B682B692B4B
:1004E00019F481E080935101FF91EF91BF91AF9199
:1004F0009F918F917F916F915F914F913F912F913C
:100500000F900FBE0F901F9018951F920F920FB66D
:100510000F9211248F929F92AF92BF92CF92DF924F
:10052000EF92FF922F933F934F935F936F937F933D
:100530008F939F93AF93BF93CF93DF93EF93FF93EB
:1005400080913B018530A9F580904C0190904D0140
:10055000A0904E01B0904F018091370190913801E9
:100560006401C81AD90AE12CF12C60EE73E984E029
:1005700090E0A70196010E942D0BC2E0D1E03B83E1
:100580002A832C813D81A5E3B2E00E944C0BA70198
:1005900096010E940B0B245C3F4F39832883809285
:1005A000370190923801A0923901B0923A0110922D
:1005B0003B0180913B018F5F80933B01C2E0D1E022
:1005C0006C817D8180E090E00E94E70926E53EE0B5
:1005D00049E450E40E949E0A20E030E543EC57E4F1
:1005E0000E943F092E853F85488959890E94CE087F
:1005F0006B017C016E877F87888B998B60910001EE
:1006000070910101072E000C880B990B0E94E909DB
:100610009B01AC01C701B6010E943A09882361F031
:10062000C701B6010E94B1096093000170930101F6
:1006300080E090E00E94160EFF91EF91DF91CF9144
:10064000BF91AF919F918F917F916F915F914F91EA
:100650003F912F91FF90EF90DF90CF90BF90AF90A0
:100660009F908F900F900FBE0F901F9018951F9224
:100670000F920FB60F9211242F933F934F935F93D6
:100680006F937F938F939F93AF93BF93EF93FF935A
:100690004C9915C06091060170910701683C710585
:1006A00070F46F5F7F4F7093070160930601609352
:1006B0004A0170934B0181E090E00E94160E4D9923
:1006C00015C060910601709107016230710570F0EC
:1006D00061507109709307016093060160934A01AC
:1006E00070934B0181E090E00E94160E4E9904C079
:1006F00084E48093140103C082E5809314014F9930
:1007000003C080E580931401FF91EF91BF91AF91F9
:100710009F918F917F916F915F914F913F912F9119
:100720000F900FBE0F901F9018951F920F920FB64B
:100730000F9211242F933F934F935F936F937F9367
:100740008F939F93AF93BF93CF93DF93EF93FF93D9
:10075000809136018130A9F138F0823009F44FC020
:10076000833009F495C0A0C080E480937C00209180
:10077000780030917900E2E0F1E0378326836085EC
:1007800071854081518191E06C32714008F090E0B8
:1007900081E04531510508F480E0892369F0ADEC32
:1007A000BCEC0E944C0B929582958F7089279F70AC
:1007B00089278093B40078C0369527952093B4009C
:1007C00073C081E480937C0060917800709179001F
:1007D00080E090E00E94E7092BE43CE340EA5BE321
:1007E0000E949E0A20E030E040EA51E40E949E0A06
:1007F0000E94B80970930D0160930C0155C082E40A
:1008000080937C00E8E7F0E020813181A5E2BAE046
:100810000E944C0B408151812FEF33E0241B350B9C
:1008200040E050E00E940B0BE901C350D140D0934F
:100830000F01C0930E01BE0180E090E00E94E70925
:10084000209144013091450140914601509147016A
:100850000E94990A181644F5C0934801D0934901A3
:100860006C2F82E090E00E94160E6091480170911A
:100870004901072E000C880B990B0E94E90960932F
:1008800044017093450180934601909347010CC049
:1008900083E480937C008091780090917900873B7D
:1008A000934010F08AE085B9809136018F5F809384
:1008B0003601FF91EF91DF91CF91BF91AF919F9161
:1008C0008F917F916F915F914F913F912F910F90F9
:1008D0000FBE0F901F9018954F925F926F927F926C
:1008E0008F929F92AF92BF92CF92DF92EF92FF9240
:1008F0000F931F93CF93DF93CDB7DEB7A8970FB6B3
:10090000F894DEBF0FBECDBF6096EEADFFAD609731
:100910008081882309F40BC121968FAD21978F9395
:100920008FAD8F9305E111E01F930F937E01F4E2E9
:10093000EF0EF11CFF92EF920E945B0B8EAD8F9336
:100940008DAD8F931F930F93CE0141969F938F93FD
:100950000E945B0B2D966CAD7DAD8EAD9FAD2D973E
:100960000E94B8097F936F931F930F933E0189E014
:10097000680E711C7F926F920E945B0B0F2EF2E04B
:10098000AF2EF1E0BF2EF02DF50181858F9380858C
:100990008F931F930F936E01F7E1CF0ED11CDF925F
:1009A000CF920E945B0B2E968FAD2E971F928F9346
:1009B0001F930F932E0188E2480E511C5F924F92B5
:1009C0000E945B0BF50183858F9382858F931F9324
:1009D0000F934E01F0E28F0E911C9F928F920E9416
:1009E0005B0B0FB6F894DEBF0FBECDBF29968FAD5F
:1009F00029978F9328968FAD28978F931F930F93E6
:100A00005E019CE1A90EB11CBF92AF920E945B0BEC
:100A10008CAD8F938BAD8F931F930F938E010F5FD0
:100A20001F4F1F930F930E945B0B0E94C60620E08E
:100A300048E065E088E690E00E944F070E943F078B
:100A40000E943B076AE08AE00E94BD06C8010E943E
:100A50007F086AE08EE10E94BD0688E191E00E9475
:100A60007F086AE08FE50E94BD06C4010E947F08EE
:100A70006AE08EE60E94BD068DE191E00E947F084B
:100A800069E18FE50E94BD06C5010E947F0869E10A
:100A900083E70E94BD0683E391E00E947F0869E13D
:100AA0008AE00E94BD068FE191E00E947F0869E123
:100AB00082E30E94BD06C6010E947F0863E28AE0CD
:100AC0000E94BD0686E291E00E947F0863E287E310
:100AD0000E94BD06C7010E947F0862E384E10E9474
:100AE000BD06C3010E947F0862E388E20E94BD0642
:100AF0008EE291E00E947F0862E38FE50E94BD06CE
:100B0000C2010E947F0862E38EE60E94BD0681E377
:100B100091E00E947F080E948F066096EEADFFADC7
:100B2000609710820FB6F894DEBF0FBECDBFA896B7
:100B30000FB6F894DEBF0FBECDBFDF91CF911F91EE
:100B40000F91FF90EF90DF90CF90BF90AF909F906C
:100B50008F907F906F905F904F90089587B1807FC6
:100B600087B984B18E6784B985B1856885B98AB142
:100B70008B708AB980E38BB982E08093690091E041
:100B80009DBB94E09093680020EF20936D0010923D
:100B9000C5002FEF2093C40028E92093C10026E070
:100BA0002093C20084BD23E025BD29EF27BD80939B
:100BB0006E0083E28093B0009093B10080E8809350
:100BC000B4008FEE80937A0010927B0080E28093D5
:100BD0007E0094E49093810080936F0078946091FC
:100BE0003C0170913D0180913E0190913F012AE3CB
:100BF00030E040E050E00E940B0BC2E0D1E03987CA
:100C0000288781E090E00E940E0E90E09D838C8307
:100C100080E090E00E940E0E682F70E080E090E08F
:100C20000E94E7096E877F87888B998B84E085B95E
:100C300080911401823519F482E085B901C015B89C
:100C400081E591E09F938F938DB79EB743970FB641
:100C5000F8949EBF0FBE8DBFADB7BEB7119683E1AE
:100C6000E2E0F1E001900D928A95E1F70E946C04B8
:100C70008DB79EB745960FB6F8949EBF0FBE8DBF39
:100C8000D5CF669566956695E82FF0E080E8689F79
:100C9000E00DF11D1124E45AFE4F4083089566953E
:100CA00066956695E82FF0E080E8689FE00DF11DFD
:100CB0001124E45AFE4F808108950F931F93CF9320
:100CC000DF93C82F8B01D42F0E94AF0888E70E94C2
:100CD000C1088C2F0E94C108C0E007C0F801EC0FCA
:100CE000F11D80810E94C108CF5FCD17B8F30E942B
:100CF000B908DF91CF911F910F910895CF93DF93A2
:100D00001F92CDB7DEB7898341E0BE016F5F7F4F91
:100D100080E00E945D060F90DF91CF910895CF9300
:100D200081E20E947E0680E00E947E068FE70E949C
:100D30007E0682E20E947E0680E00E947E0687E0B8
:100D40000E947E06C0E00BC080E1C89FB001112464
:100D5000645A7E4F40E180E40E945D06CF5FC0345C
:100D600098F3CF910895882314F080935301089548
:100D7000803410F4809354010895CF93C62F0E94BD
:100D8000B3068C2F0E94B806CF9108950E94960852
:100D90008EEA0E947E0685ED0E947E0680EF0E940C
:100DA0007E0688EA0E947E068FE30E947E0683ED1F
:100DB0000E947E0680E00E947E068DE80E947E06EC
:100DC00084E10E947E0680E40E947E0680E20E940A
:100DD0007E0680E00E947E0681EA0E947E0688EC04
:100DE0000E947E068AED0E947E0682E10E947E06B7
:100DF00081E80E947E068FEF0E947E0689ED0E94A8
:100E00007E0681EF0E947E068BED0E947E0680E2C8
:100E10000E947E0684EA0E947E0686EA0E947E0682
:100E20008EE20E947E068FEA0E947E0660E080E0ED
:100E30000E94BD06E3E5F1E086EA8283178216820E
:100E400015821182108208951F93CF93DF93182F7C
:100E5000D0E00BC0412F6D2F8C2F0E944106CF5F39
:100E600001C0C0E0CC23B4F7D85FD034D0F3DF9119
:100E7000CF911F91089580E00E94240708958091EA
:100E80005501873A21F486EA8093550103C087EA29
:100E900080935501809155010E947E060895662336
:100EA000E4F04034D0F42230C0F4E3E5F1E0948380
:100EB00083836583468350E041505109CA019923D9
:100EC0000CF40796959587959595879595958795B3
:100ED000E3E5F1E08F5F8783208708954F925F926B
:100EE0006F927F928F929F92AF92BF92CF92DF923A
:100EF000EF92FF920F931F93CF93DF93A3E5B1E09F
:100F00005C9011964C901197805215969C91159774
:100F100017962C911797929F900111242F5F3F4FA6
:100F2000829FA001839F500D11241396ED91FC9197
:100F300014975A018FEFA81AB80AE40FF51F74909E
:100F4000842D8770982E642C812C5FC0662D852D92
:100F50000E94BD067501E80CF11C670181E0C81A0A
:100F6000D10810E041C08091560190915701FC01D9
:100F7000EE0DFF1D2491492D50E030E0092C02C0F8
:100F8000220F331F0A94E2F7022F8820A1F0FC0100
:100F9000EC0DFD1DE49188E090E0841B950BF0E0E2
:100FA00002C0F595E7958A95E2F70E2F022B809106
:100FB0005A01C80ED11C80915B01813039F4E3E500
:100FC000F1E0618180810E944F06082BC3E5D1E0EA
:100FD0006981888191E0980F9883402F0E94410693
:100FE0008F81E80EF11C1F5F171508F4BCCF8091AC
:100FF0005B01811107C0E3E5F1E040E061818081A0
:101000000E94410688E0680E839480915A018816F8
:1010100008F49CCF242D26952695269530E08091C6
:10102000590190E0840D911D0197AC0112F4495FC4
:101030005F4F559547955595479555954795241775
:10104000350709F445C08FE3861508F441C0662DC5
:10105000852D0E94BD06A80CB11C81E0A81AB1081C
:1010600000E029C0C3E5D1E0F98018816F2D812F00
:101070000E944F06EB81FC81EA0DFB1D449128E0A4
:1010800030E02919310950E002C0559547952A955D
:10109000E2F7482B9885913009F4482BC3E5D1E05D
:1010A00081E0810F88836F2D812F0E9441068F81FF
:1010B000A80EB11C0F5F0715A8F280915B0181118A
:1010C00007C0E3E5F1E040E0618180810E944106D4
:1010D000852D870D642D8F5F0E94BD06DF91CF9116
:1010E0001F910F91FF90EF90DF90CF90BF90AF9046
:1010F0009F908F907F906F905F904F900895CF93C7
:10110000DF93EC010DC0E3E5F1E09081258130E053
:10111000290F311D2038310534F421960E946E07C5
:1011200088818111F0CFDF91CF91089587B18061DF
:1011300087B987B1806287B988B1806188B988B181
:10114000806288B91092B90088E48093B80084E086
:101150008093BC0008958091B900887F089584EA47
:101160008093BC008091BC008823E4F70E94AB0808
:10117000089585ED8093BC008091BC0084FDFCCF78
:1011800008958093BB0084E88093BC008091BC00EC
:101190008823E4F70E94AB0808955058BB27AA277C
:1011A0000E94E5080C945F0A0E94510A38F00E94E0
:1011B000580A20F039F49F3F19F426F40C944E0A93
:1011C0000EF4E095E7FB0C94480AE92F0E94700AA0
:1011D00058F3BA17620773078407950720F079F46C
:1011E000A6F50C94920A0EF4E0950B2EBA2FA02DC2
:1011F0000B01B90190010C01CA01A0011124FF27C4
:10120000591B99F0593F50F4503E68F11A16F040BE
:10121000A22F232F342F4427585FF3CF46953795BD
:101220002795A795F0405395C9F77EF41F16BA0B82
:10123000620B730B840BBAF09150A1F0FF0FBB1F30
:10124000661F771F881FC2F70EC0BA0F621F731F79
:10125000841F48F4879577956795B795F7959E3FD6
:1012600008F0B0CF9395880F08F09927EE0F979567
:10127000879508950E94240A08F481E008950E9449
:1012800053090C945F0A0E94580A58F00E94510AB0
:1012900040F029F45F3F29F00C94480A51110C9456
:1012A000930A0C944E0A0E94700A68F39923B1F3D2
:1012B000552391F3951B550BBB27AA27621773077C
:1012C000840738F09F5F5F4F220F331F441FAA1F10
:1012D000A9F335D00E2E3AF0E0E832D091505040CC
:1012E000E695001CCAF72BD0FE2F29D0660F771F7A
:1012F000881FBB1F261737074807AB07B0E809F060
:10130000BB0B802DBF01FF2793585F4F3AF09E3FE4
:10131000510578F00C94480A0C94930A5F3FE4F36B
:10132000983ED4F3869577956795B795F7959F5F27
:10133000C9F7880F911D9695879597F90895E1E073
:10134000660F771F881FBB1F621773078407BA07D2
:1013500020F0621B730B840BBA0BEE1F88F7E0952D
:1013600008950E94B8096894B1110C94930A0895E5
:101370000E94780A88F09F5798F0B92F9927B751A3
:10138000B0F0E1F0660F771F881F991F1AF0BA9529
:10139000C9F714C0B13091F00E94920AB1E00895EB
:1013A0000C94920A672F782F8827B85F39F0B93FDD
:1013B000CCF3869577956795B395D9F73EF49095DC
:1013C0008095709561957F4F8F4F9F4F0895E8945A
:1013D00009C097FB3EF490958095709561957F4F7D
:1013E0008F4F9F4F9923A9F0F92F96E9BB2793952B
:1013F000F695879577956795B795F111F8CFFAF43B
:10140000BB0F11F460FF1BC06F5F7F4F8F4F9F4F6B
:1014100016C0882311F096E911C0772321F09EE8C9
:10142000872F762F05C0662371F096E8862F70E02F
:1014300060E02AF09A95660F771F881FDAF7880F09
:101440009695879597F90895990F0008550FAA0B5F
:10145000E0E8FEEF16161706E807F907C0F01216C7
:101460001306E407F50798F0621B730B840B950BCA
:1014700039F40A2661F0232B242B252B21F408951F
:101480000A2609F4A140A6958FEF811D811D0895BC
:1014900097F99F6780E870E060E008959FEF80EC27
:1014A000089500240A9416161706180609060895CA
:1014B00000240A9412161306140605060895092E30
:1014C0000394000C11F4882352F0BB0F40F4BF2B9F
:1014D00011F460FF04C06F5F7F4F8F4F9F4F0895DF
:1014E00057FD9058440F551F59F05F3F71F04795D5
:1014F000880F97FB991F61F09F3F79F087950895BA
:10150000121613061406551FF2CF4695F1DF08C0D8
:10151000161617061806991FF1CF869571056105F5
:1015200008940895E894BB2766277727CB0197F99D
:1015300008950E94240A08F48FEF08950E94B10ACA
:101540000C945F0A0E94510A38F00E94580A20F059
:10155000952311F00C94480A0C944E0A11240C9413
:10156000930A0E94700A70F3959FC1F3950F50E0A3
:10157000551F629FF001729FBB27F00DB11D639F45
:10158000AA27F00DB11DAA1F649F6627B00DA11DEB
:10159000661F829F2227B00DA11D621F739FB00D91
:1015A000A11D621F839FA00D611D221F749F332701
:1015B000A00D611D231F849F600D211D822F762F9A
:1015C0006A2F11249F5750409AF0F1F088234AF077
:1015D000EE0FFF1FBB1F661F771F881F91505040E3
:1015E000A9F79E3F510580F00C94480A0C94930A89
:1015F0005F3FE4F3983ED4F3869577956795B7956A
:10160000F795E7959F5FC1F7FE2B880F911D969583
:10161000879597F90895A1E21A2EAA1BBB1BFD011D
:101620000DC0AA1FBB1FEE1FFF1FA217B307E407C1
:10163000F50720F0A21BB30BE40BF50B661F771F19
:10164000881F991F1A9469F76095709580959095F9
:101650009B01AC01BD01CF010895052E97FB1EF43F
:1016600000940E94440B57FD07D00E940B0B07FC0F
:1016700003D04EF40C94440B509540953095219531
:101680003F4F4F4F5F4F08959095809570956195AE
:101690007F4F8F4F9F4F0895A29FB001B39FC0010E
:1016A000A39F700D811D1124911DB29F700D811D8E
:1016B0001124911D0895AEE0B0E0E1E6FBE00C944A
:1016C000320E0D891E8986E08C831A8309838FEF81
:1016D0009FE79E838D83AE01475E5F4F6F89788D54
:1016E000CE0101960E947D0BEF81F885E00FF11F7E
:1016F00010822E96E4E00C944E0EABE0B0E0E3E8EE
:10170000FBE00C94240E6C017B018A01FC01178222
:101710001682838181FFCCC1CE0101963C01F60186
:101720009381F70193FD859193FF81917F01882338
:1017300009F4BAC1853239F493FD859193FF819103
:101740007F01853229F4B60190E00E94740DE7CF45
:10175000912C212C312CFFE1F315D8F08B3279F04C
:1017600038F4803279F08332A1F4232D20611DC03A
:101770008D3261F0803369F4232D216016C0832DF2
:101780008260382EE32DE4603E2E2AC0F32DF860EF
:101790001DC037FC2DC020ED280F2A3040F08E32BE
:1017A000B9F436FC81C1232D2064322E19C036FED7
:1017B00006C08AE0989E200D1124922E11C0EAE006
:1017C0002E9E200D1124222EF32DF0623F2E08C0F4
:1017D0008C3621F4832D8068382E02C0883641F47F
:1017E000F70193FD859193FF81917F018111B3CF23
:1017F000982F9F7D9554933028F40C5F1F4F9FE3E3
:1018000099830DC0833631F0833771F0833509F049
:1018100059C021C0F801808189830E5F1F4F882441
:101820008394912C530113C02801F2E04F0E511CF8
:10183000F801A080B18036FE03C0692D70E002C0BF
:101840006FEF7FEFC5010E94690D4C018201F32DFE
:10185000FF773F2E16C0280122E0420E511CF801EE
:10186000A080B18036FE03C0692D70E002C06FEF2A
:101870007FEFC5010E945E0D4C01F32DF0683F2EF5
:10188000820133FC1BC0822D90E088169906B0F4CB
:10189000B60180E290E00E94740D2A94F4CFF50125
:1018A00037FC859137FE81915F01B60190E00E947F
:1018B000740D21102A9421E0821A91088114910458
:1018C00071F7E8C0843611F0893641F5F80137FE2A
:1018D00007C060817181828193810C5F1F4F08C0B6
:1018E00060817181072E000C880B990B0E5F1F4FD2
:1018F000F32DFF763F2E97FF09C090958095709548
:1019000061957F4F8F4F9F4FF0683F2E2AE030E068
:10191000A3010E94B00D882E861845C0853731F48A
:10192000232D2F7EB22E2AE030E025C0932D997F03
:10193000B92E8F36C1F018F4883579F0B5C08037EC
:1019400019F0883721F0B0C0E92FE061BE2EB4FE57
:101950000DC0FB2DF460BF2E09C034FE0AC0292F34
:101960002660B22E06C028E030E005C020E130E05D
:1019700002C020E132E0F801B7FE07C0608171814A
:10198000828193810C5F1F4F06C06081718180E06E
:1019900090E00E5F1F4FA3010E94B00D882E8618A5
:1019A000FB2DFF773F2E36FE0DC0232D2E7FA22E5E
:1019B000891458F434FE0BC032FC09C0832D8E7E8E
:1019C000A82E05C0B82CA32C03C0B82C01C0B92C7C
:1019D000A4FE0FC0FE01E80DF11D8081803321F4CB
:1019E0009A2D997EA92E09C0A2FE06C0B394B39485
:1019F00004C08A2D867809F0B394A3FC11C0A0FE20
:101A000006C0B21488F4280C922C9B180EC0B21495
:101A100060F4B60180E290E00E94740DB394F7CFB9
:101A2000B21418F42B1802C0982C212CA4FE10C05C
:101A3000B60180E390E00E94740DA2FE17C0A1FCE5
:101A400003C088E790E002C088E590E0B6010CC0D2
:101A50008A2D867859F0A1FE02C08BE201C080E297
:101A6000A7FC8DE2B60190E00E94740D891438F451
:101A7000B60180E390E00E94740D9A94F7CF8A94A7
:101A8000F301E80DF11D8081B60190E00E94740D14
:101A90008110F5CF222009F442CEB60180E290E019
:101AA0000E94740D2A94F6CFF6018681978102C0B8
:101AB0008FEF9FEF2B96E2E10C94400EFC01059016
:101AC000615070400110D8F7809590958E0F9F1F40
:101AD0000895FC016150704001900110D8F7809585
:101AE00090958E0F9F1F08950F931F93CF93DF93B1
:101AF000FB01238121FD03C08FEF9FEF2CC022FF4C
:101B000016C046815781248135814217530744F41A
:101B1000A081B1819D012F5F3F4F318320838C9342
:101B2000268137812F5F3F4F3783268314C08B0177
:101B3000EC01FB010084F185E02D0995892BE1F68C
:101B4000D80116968D919C911797019617969C93A4
:101B50008E931697CE01DF91CF911F910F9108952B
:101B6000FA01AA27283051F1203181F1E8946F93CE
:101B70006E7F6E5F7F4F8F4F9F4FAF4FB1E03ED074
:101B8000B4E03CD0670F781F891F9A1FA11D680F12
:101B9000791F8A1F911DA11D6A0F711D811D911D45
:101BA000A11D20D009F468943F912AE0269F1124BA
:101BB0003019305D3193DEF6CF010895462F47701E
:101BC000405D4193B3E00FD0C9F7F6CF462F4F7079
:101BD000405D4A3318F0495D31FD4052419302D0D7
:101BE000A9F7EACFB4E0A69597958795779567957D
:101BF000BA95C9F700976105710508959B01AC017D
:101C00000A2E06945795479537952795BA95C9F7A3
:101C1000620F731F841F951FA01D0895F999FECFB1
:101C200092BD81BDF89A992780B50895262FF9991C
:101C3000FECF1FBA92BD81BD20BD0FB6F894FA9AAF
:101C4000F99A0FBE019608952F923F924F925F929C
:101C50006F927F928F929F92AF92BF92CF92DF92BC
:101C6000EF92FF920F931F93CF93DF93CDB7DEB721
:101C7000CA1BDB0B0FB6F894DEBF0FBECDBF0994B5
:101C80002A88398848885F846E847D848C849B840C
:101C9000AA84B984C884DF80EE80FD800C811B811A
:101CA000AA81B981CE0FD11D0FB6F894DEBF0FBE49
:0A1CB000CDBFED010895F894FFCFB9
:101CBA000A007B0000004100000000000000000054
:101CCA0000002041442575004B6D2F680025005304
:101CDA006F6E61723A00442E506E65753A006B6DF4
:061CEA000041534300001D
:00000001FF
